{
  "address": "0x6c3AdE19a8947bC4CC75B2AE3F2E25F4cBb23709",
  "abi": [
    {
      "inputs": [
        {
          "internalType": "address",
          "name": "_parcelNFTAddress",
          "type": "address"
        },
        {
          "internalType": "address",
          "name": "_cityTokenAddress",
          "type": "address"
        }
      ],
      "stateMutability": "nonpayable",
      "type": "constructor"
    },
    {
      "inputs": [],
      "name": "ERC721EnumerableForbiddenBatchMint",
      "type": "error"
    },
    {
      "inputs": [
        {
          "internalType": "address",
          "name": "sender",
          "type": "address"
        },
        {
          "internalType": "uint256",
          "name": "tokenId",
          "type": "uint256"
        },
        {
          "internalType": "address",
          "name": "owner",
          "type": "address"
        }
      ],
      "name": "ERC721IncorrectOwner",
      "type": "error"
    },
    {
      "inputs": [
        {
          "internalType": "address",
          "name": "operator",
          "type": "address"
        },
        {
          "internalType": "uint256",
          "name": "tokenId",
          "type": "uint256"
        }
      ],
      "name": "ERC721InsufficientApproval",
      "type": "error"
    },
    {
      "inputs": [
        {
          "internalType": "address",
          "name": "approver",
          "type": "address"
        }
      ],
      "name": "ERC721InvalidApprover",
      "type": "error"
    },
    {
      "inputs": [
        {
          "internalType": "address",
          "name": "operator",
          "type": "address"
        }
      ],
      "name": "ERC721InvalidOperator",
      "type": "error"
    },
    {
      "inputs": [
        {
          "internalType": "address",
          "name": "owner",
          "type": "address"
        }
      ],
      "name": "ERC721InvalidOwner",
      "type": "error"
    },
    {
      "inputs": [
        {
          "internalType": "address",
          "name": "receiver",
          "type": "address"
        }
      ],
      "name": "ERC721InvalidReceiver",
      "type": "error"
    },
    {
      "inputs": [
        {
          "internalType": "address",
          "name": "sender",
          "type": "address"
        }
      ],
      "name": "ERC721InvalidSender",
      "type": "error"
    },
    {
      "inputs": [
        {
          "internalType": "uint256",
          "name": "tokenId",
          "type": "uint256"
        }
      ],
      "name": "ERC721NonexistentToken",
      "type": "error"
    },
    {
      "inputs": [
        {
          "internalType": "address",
          "name": "owner",
          "type": "address"
        },
        {
          "internalType": "uint256",
          "name": "index",
          "type": "uint256"
        }
      ],
      "name": "ERC721OutOfBoundsIndex",
      "type": "error"
    },
    {
      "inputs": [
        {
          "internalType": "address",
          "name": "owner",
          "type": "address"
        }
      ],
      "name": "OwnableInvalidOwner",
      "type": "error"
    },
    {
      "inputs": [
        {
          "internalType": "address",
          "name": "account",
          "type": "address"
        }
      ],
      "name": "OwnableUnauthorizedAccount",
      "type": "error"
    },
    {
      "anonymous": false,
      "inputs": [
        {
          "indexed": true,
          "internalType": "address",
          "name": "owner",
          "type": "address"
        },
        {
          "indexed": true,
          "internalType": "address",
          "name": "approved",
          "type": "address"
        },
        {
          "indexed": true,
          "internalType": "uint256",
          "name": "tokenId",
          "type": "uint256"
        }
      ],
      "name": "Approval",
      "type": "event"
    },
    {
      "anonymous": false,
      "inputs": [
        {
          "indexed": true,
          "internalType": "address",
          "name": "owner",
          "type": "address"
        },
        {
          "indexed": true,
          "internalType": "address",
          "name": "operator",
          "type": "address"
        },
        {
          "indexed": false,
          "internalType": "bool",
          "name": "approved",
          "type": "bool"
        }
      ],
      "name": "ApprovalForAll",
      "type": "event"
    },
    {
      "anonymous": false,
      "inputs": [
        {
          "indexed": true,
          "internalType": "uint256",
          "name": "proposalId",
          "type": "uint256"
        },
        {
          "indexed": false,
          "internalType": "uint256",
          "name": "ethAmount",
          "type": "uint256"
        },
        {
          "indexed": false,
          "internalType": "uint256",
          "name": "tokenAmount",
          "type": "uint256"
        }
      ],
      "name": "FundsDeposited",
      "type": "event"
    },
    {
      "anonymous": false,
      "inputs": [
        {
          "indexed": true,
          "internalType": "uint256",
          "name": "proposalId",
          "type": "uint256"
        },
        {
          "indexed": false,
          "internalType": "uint256",
          "name": "ethAmount",
          "type": "uint256"
        },
        {
          "indexed": false,
          "internalType": "uint256",
          "name": "tokenAmount",
          "type": "uint256"
        }
      ],
      "name": "FundsDistributed",
      "type": "event"
    },
    {
      "anonymous": false,
      "inputs": [
        {
          "indexed": true,
          "internalType": "address",
          "name": "previousOwner",
          "type": "address"
        },
        {
          "indexed": true,
          "internalType": "address",
          "name": "newOwner",
          "type": "address"
        }
      ],
      "name": "OwnershipTransferred",
      "type": "event"
    },
    {
      "anonymous": false,
      "inputs": [
        {
          "indexed": true,
          "internalType": "uint256",
          "name": "proposalId",
          "type": "uint256"
        },
        {
          "indexed": false,
          "internalType": "string",
          "name": "parcelId",
          "type": "string"
        },
        {
          "indexed": false,
          "internalType": "address",
          "name": "owner",
          "type": "address"
        }
      ],
      "name": "ProposalAccepted",
      "type": "event"
    },
    {
      "anonymous": false,
      "inputs": [
        {
          "indexed": true,
          "internalType": "address",
          "name": "from",
          "type": "address"
        },
        {
          "indexed": true,
          "internalType": "address",
          "name": "to",
          "type": "address"
        },
        {
          "indexed": true,
          "internalType": "uint256",
          "name": "tokenId",
          "type": "uint256"
        }
      ],
      "name": "Transfer",
      "type": "event"
    },
    {
      "inputs": [
        {
          "internalType": "uint256",
          "name": "proposalId",
          "type": "uint256"
        },
        {
          "internalType": "string",
          "name": "parcelId",
          "type": "string"
        }
      ],
      "name": "acceptProposal",
      "outputs": [],
      "stateMutability": "nonpayable",
      "type": "function"
    },
    {
      "inputs": [
        {
          "internalType": "address",
          "name": "to",
          "type": "address"
        },
        {
          "internalType": "uint256",
          "name": "tokenId",
          "type": "uint256"
        }
      ],
      "name": "approve",
      "outputs": [],
      "stateMutability": "nonpayable",
      "type": "function"
    },
    {
      "inputs": [
        {
          "internalType": "address",
          "name": "owner",
          "type": "address"
        }
      ],
      "name": "balanceOf",
      "outputs": [
        {
          "internalType": "uint256",
          "name": "",
          "type": "uint256"
        }
      ],
      "stateMutability": "view",
      "type": "function"
    },
    {
      "inputs": [],
      "name": "cityToken",
      "outputs": [
        {
          "internalType": "contract IERC20",
          "name": "",
          "type": "address"
        }
      ],
      "stateMutability": "view",
      "type": "function"
    },
    {
      "inputs": [
        {
          "internalType": "address",
          "name": "tokenAddress",
          "type": "address"
        },
        {
          "internalType": "uint256",
          "name": "proposalId",
          "type": "uint256"
        },
        {
          "internalType": "uint256",
          "name": "amount",
          "type": "uint256"
        }
      ],
      "name": "depositERC20",
      "outputs": [],
      "stateMutability": "nonpayable",
      "type": "function"
    },
    {
      "inputs": [
        {
          "internalType": "uint256",
          "name": "proposalId",
          "type": "uint256"
        }
      ],
      "name": "depositFunds",
      "outputs": [],
      "stateMutability": "payable",
      "type": "function"
    },
    {
      "inputs": [
        {
          "internalType": "uint256",
          "name": "proposalId",
          "type": "uint256"
        }
      ],
      "name": "distributeFunds",
      "outputs": [],
      "stateMutability": "nonpayable",
      "type": "function"
    },
    {
      "inputs": [
        {
          "internalType": "uint256",
          "name": "tokenId",
          "type": "uint256"
        }
      ],
      "name": "getApproved",
      "outputs": [
        {
          "internalType": "address",
          "name": "",
          "type": "address"
        }
      ],
      "stateMutability": "view",
      "type": "function"
    },
    {
      "inputs": [
        {
          "internalType": "uint256",
          "name": "proposalId",
          "type": "uint256"
        }
      ],
      "name": "getProposal",
      "outputs": [
        {
          "internalType": "string[]",
          "name": "parcelIds",
          "type": "string[]"
        },
        {
          "internalType": "bool",
          "name": "isConditional",
          "type": "bool"
        },
        {
          "internalType": "string",
          "name": "imageURI",
          "type": "string"
        },
        {
          "internalType": "bool",
          "name": "isActive",
          "type": "bool"
        },
        {
          "internalType": "uint256",
          "name": "ethBalance",
          "type": "uint256"
        },
        {
          "internalType": "uint256",
          "name": "tokenBalance",
          "type": "uint256"
        },
        {
          "internalType": "uint256",
          "name": "acceptanceCount",
          "type": "uint256"
        }
      ],
      "stateMutability": "view",
      "type": "function"
    },
    {
      "inputs": [
        {
          "internalType": "uint256",
          "name": "proposalId",
          "type": "uint256"
        },
        {
          "internalType": "string",
          "name": "parcelId",
          "type": "string"
        }
      ],
      "name": "hasAccepted",
      "outputs": [
        {
          "internalType": "bool",
          "name": "",
          "type": "bool"
        }
      ],
      "stateMutability": "view",
      "type": "function"
    },
    {
      "inputs": [
        {
          "internalType": "address",
          "name": "owner",
          "type": "address"
        },
        {
          "internalType": "address",
          "name": "operator",
          "type": "address"
        }
      ],
      "name": "isApprovedForAll",
      "outputs": [
        {
          "internalType": "bool",
          "name": "",
          "type": "bool"
        }
      ],
      "stateMutability": "view",
      "type": "function"
    },
    {
      "inputs": [
        {
          "internalType": "address",
          "name": "to",
          "type": "address"
        },
        {
          "internalType": "string[]",
          "name": "parcelIds",
          "type": "string[]"
        },
        {
          "internalType": "bool",
          "name": "isConditional",
          "type": "bool"
        },
        {
          "internalType": "string",
          "name": "imageURI",
          "type": "string"
        },
        {
          "internalType": "uint256",
          "name": "ethAmount",
          "type": "uint256"
        },
        {
          "internalType": "uint256",
          "name": "tokenAmount",
          "type": "uint256"
        }
      ],
      "name": "mintAndFund",
      "outputs": [
        {
          "internalType": "uint256",
          "name": "",
          "type": "uint256"
        }
      ],
      "stateMutability": "payable",
      "type": "function"
    },
    {
      "inputs": [],
      "name": "name",
      "outputs": [
        {
          "internalType": "string",
          "name": "",
          "type": "string"
        }
      ],
      "stateMutability": "view",
      "type": "function"
    },
    {
      "inputs": [],
      "name": "owner",
      "outputs": [
        {
          "internalType": "address",
          "name": "",
          "type": "address"
        }
      ],
      "stateMutability": "view",
      "type": "function"
    },
    {
      "inputs": [
        {
          "internalType": "uint256",
          "name": "tokenId",
          "type": "uint256"
        }
      ],
      "name": "ownerOf",
      "outputs": [
        {
          "internalType": "address",
          "name": "",
          "type": "address"
        }
      ],
      "stateMutability": "view",
      "type": "function"
    },
    {
      "inputs": [],
      "name": "parcelNFT",
      "outputs": [
        {
          "internalType": "contract ParcelNFT",
          "name": "",
          "type": "address"
        }
      ],
      "stateMutability": "view",
      "type": "function"
    },
    {
      "inputs": [
        {
          "internalType": "uint256",
          "name": "",
          "type": "uint256"
        }
      ],
      "name": "proposals",
      "outputs": [
        {
          "internalType": "bool",
          "name": "isConditional",
          "type": "bool"
        },
        {
          "internalType": "string",
          "name": "imageURI",
          "type": "string"
        },
        {
          "internalType": "bool",
          "name": "isActive",
          "type": "bool"
        },
        {
          "internalType": "uint256",
          "name": "ethBalance",
          "type": "uint256"
        },
        {
          "internalType": "uint256",
          "name": "tokenBalance",
          "type": "uint256"
        },
        {
          "internalType": "uint256",
          "name": "acceptanceCount",
          "type": "uint256"
        }
      ],
      "stateMutability": "view",
      "type": "function"
    },
    {
      "inputs": [],
      "name": "renounceOwnership",
      "outputs": [],
      "stateMutability": "nonpayable",
      "type": "function"
    },
    {
      "inputs": [
        {
          "internalType": "address",
          "name": "from",
          "type": "address"
        },
        {
          "internalType": "address",
          "name": "to",
          "type": "address"
        },
        {
          "internalType": "uint256",
          "name": "tokenId",
          "type": "uint256"
        }
      ],
      "name": "safeTransferFrom",
      "outputs": [],
      "stateMutability": "nonpayable",
      "type": "function"
    },
    {
      "inputs": [
        {
          "internalType": "address",
          "name": "from",
          "type": "address"
        },
        {
          "internalType": "address",
          "name": "to",
          "type": "address"
        },
        {
          "internalType": "uint256",
          "name": "tokenId",
          "type": "uint256"
        },
        {
          "internalType": "bytes",
          "name": "data",
          "type": "bytes"
        }
      ],
      "name": "safeTransferFrom",
      "outputs": [],
      "stateMutability": "nonpayable",
      "type": "function"
    },
    {
      "inputs": [
        {
          "internalType": "address",
          "name": "operator",
          "type": "address"
        },
        {
          "internalType": "bool",
          "name": "approved",
          "type": "bool"
        }
      ],
      "name": "setApprovalForAll",
      "outputs": [],
      "stateMutability": "nonpayable",
      "type": "function"
    },
    {
      "inputs": [
        {
          "internalType": "bytes4",
          "name": "interfaceId",
          "type": "bytes4"
        }
      ],
      "name": "supportsInterface",
      "outputs": [
        {
          "internalType": "bool",
          "name": "",
          "type": "bool"
        }
      ],
      "stateMutability": "view",
      "type": "function"
    },
    {
      "inputs": [],
      "name": "symbol",
      "outputs": [
        {
          "internalType": "string",
          "name": "",
          "type": "string"
        }
      ],
      "stateMutability": "view",
      "type": "function"
    },
    {
      "inputs": [
        {
          "internalType": "uint256",
          "name": "index",
          "type": "uint256"
        }
      ],
      "name": "tokenByIndex",
      "outputs": [
        {
          "internalType": "uint256",
          "name": "",
          "type": "uint256"
        }
      ],
      "stateMutability": "view",
      "type": "function"
    },
    {
      "inputs": [
        {
          "internalType": "address",
          "name": "owner",
          "type": "address"
        },
        {
          "internalType": "uint256",
          "name": "index",
          "type": "uint256"
        }
      ],
      "name": "tokenOfOwnerByIndex",
      "outputs": [
        {
          "internalType": "uint256",
          "name": "",
          "type": "uint256"
        }
      ],
      "stateMutability": "view",
      "type": "function"
    },
    {
      "inputs": [
        {
          "internalType": "uint256",
          "name": "tokenId",
          "type": "uint256"
        }
      ],
      "name": "tokenURI",
      "outputs": [
        {
          "internalType": "string",
          "name": "",
          "type": "string"
        }
      ],
      "stateMutability": "view",
      "type": "function"
    },
    {
      "inputs": [],
      "name": "totalSupply",
      "outputs": [
        {
          "internalType": "uint256",
          "name": "",
          "type": "uint256"
        }
      ],
      "stateMutability": "view",
      "type": "function"
    },
    {
      "inputs": [
        {
          "internalType": "address",
          "name": "from",
          "type": "address"
        },
        {
          "internalType": "address",
          "name": "to",
          "type": "address"
        },
        {
          "internalType": "uint256",
          "name": "tokenId",
          "type": "uint256"
        }
      ],
      "name": "transferFrom",
      "outputs": [],
      "stateMutability": "nonpayable",
      "type": "function"
    },
    {
      "inputs": [
        {
          "internalType": "address",
          "name": "newOwner",
          "type": "address"
        }
      ],
      "name": "transferOwnership",
      "outputs": [],
      "stateMutability": "nonpayable",
      "type": "function"
    },
    {
      "inputs": [],
      "name": "usdcToken",
      "outputs": [
        {
          "internalType": "contract IERC20",
          "name": "",
          "type": "address"
        }
      ],
      "stateMutability": "view",
      "type": "function"
    }
  ],
  "transactionHash": "0xb68057fd432188d57b1cb993459b0c0cf5a1e35a86ee510cf8918935eed305f6",
  "args": [
    "0x5FbDB2315678afecb367f032d93F642f64180aa3",
    "0xe7f1725E7734CE288F8367e1Bb143E90bb3F0512"
  ],
  "numDeployments": 2,
  "solcInputHash": "7abf906363375f3fb02d0b2badfaa5d7",
  "bytecode": "0x60806040523480156200001157600080fd5b50604051620034e1380380620034e1833981016040819052620000349162000187565b336040518060400160405280601a81526020017f557262616e2047616d65205468656f72792050726f706f73616c000000000000815250604051806040016040528060048152602001632aa3aa2960e11b815250816000908162000099919062000264565b506001620000a8828262000264565b5050506001600160a01b038116620000da57604051631e4fbdf760e01b81526000600482015260240160405180910390fd5b620000e58162000118565b50600b80546001600160a01b039384166001600160a01b031991821617909155600c805492909316911617905562000330565b600a80546001600160a01b038381166001600160a01b0319831681179093556040519116919082907f8be0079c531659141344cd1fd0a4f28419497f9722a3daafe3b4186f6b6457e090600090a35050565b80516001600160a01b03811681146200018257600080fd5b919050565b600080604083850312156200019b57600080fd5b620001a6836200016a565b9150620001b6602084016200016a565b90509250929050565b634e487b7160e01b600052604160045260246000fd5b600181811c90821680620001ea57607f821691505b6020821081036200020b57634e487b7160e01b600052602260045260246000fd5b50919050565b601f8211156200025f57600081815260208120601f850160051c810160208610156200023a5750805b601f850160051c820191505b818110156200025b5782815560010162000246565b5050505b505050565b81516001600160401b03811115620002805762000280620001bf565b6200029881620002918454620001d5565b8462000211565b602080601f831160018114620002d05760008415620002b75750858301515b600019600386901b1c1916600185901b1785556200025b565b600085815260208120601f198616915b828110156200030157888601518255948401946001909101908401620002e0565b5085821015620003205787850151600019600388901b60f8161c191681555b5050505050600190811b01905550565b6131a180620003406000396000f3fe6080604052600436106101cd5760003560e01c80634f6ccce7116100f7578063a22cb46511610095578063e3c5563011610064578063e3c5563014610539578063e985e9c514610559578063f2fde38b14610579578063f726f7151461059957600080fd5b8063a22cb465146104a6578063b88d4fde146104c6578063c7f758a8146104e6578063c87b56dd1461051957600080fd5b8063715018a6116100d1578063715018a61461044b578063824b4ccc146104605780638da5cb5b1461047357806395d89b411461049157600080fd5b80634f6ccce7146103eb5780636352211e1461040b57806370a082311461042b57600080fd5b806311eac8551161016f5780632bf2d0e41161013e5780632bf2d0e4146103785780632f745c59146103985780633b76594d146103b857806342842e0e146103cb57600080fd5b806311eac855146102f957806318160ddd1461031957806321425ee01461033857806323b872dd1461035857600080fd5b806306fdde03116101ab57806306fdde0314610275578063081812fc14610297578063095ea7b3146102b75780630e8dc789146102d957600080fd5b8063013cf08b146101d257806301ffc9a71461020d57806305653c611461023d575b600080fd5b3480156101de57600080fd5b506101f26101ed366004612792565b6105b9565b604051610204969594939291906127fb565b60405180910390f35b34801561021957600080fd5b5061022d610228366004612851565b610682565b6040519015158152602001610204565b34801561024957600080fd5b50600b5461025d906001600160a01b031681565b6040516001600160a01b039091168152602001610204565b34801561028157600080fd5b5061028a610693565b6040516102049190612875565b3480156102a357600080fd5b5061025d6102b2366004612792565b610725565b3480156102c357600080fd5b506102d76102d236600461289d565b61074e565b005b3480156102e557600080fd5b50600c5461025d906001600160a01b031681565b34801561030557600080fd5b50600d5461025d906001600160a01b031681565b34801561032557600080fd5b506008545b604051908152602001610204565b34801561034457600080fd5b506102d76103533660046128c9565b61075d565b34801561036457600080fd5b506102d76103733660046128fe565b610a59565b34801561038457600080fd5b5061022d6103933660046129fe565b610ae4565b3480156103a457600080fd5b5061032a6103b336600461289d565b610b55565b6102d76103c6366004612792565b610bba565b3480156103d757600080fd5b506102d76103e63660046128fe565b610e85565b3480156103f757600080fd5b5061032a610406366004612792565b610ea5565b34801561041757600080fd5b5061025d610426366004612792565b610efe565b34801561043757600080fd5b5061032a610446366004612a45565b610f09565b34801561045757600080fd5b506102d7610f51565b61032a61046e366004612a80565b610f65565b34801561047f57600080fd5b50600a546001600160a01b031661025d565b34801561049d57600080fd5b5061028a611226565b3480156104b257600080fd5b506102d76104c1366004612b9d565b611235565b3480156104d257600080fd5b506102d76104e1366004612bd6565b611240565b3480156104f257600080fd5b50610506610501366004612792565b611258565b6040516102049796959493929190612c56565b34801561052557600080fd5b5061028a610534366004612792565b611445565b34801561054557600080fd5b506102d76105543660046129fe565b61155e565b34801561056557600080fd5b5061022d610574366004612cf8565b6118a4565b34801561058557600080fd5b506102d7610594366004612a45565b6118d2565b3480156105a557600080fd5b506102d76105b4366004612792565b611910565b600e602052600090815260409020600181015460028201805460ff90921692916105e290612d26565b80601f016020809104026020016040519081016040528092919081815260200182805461060e90612d26565b801561065b5780601f106106305761010080835404028352916020019161065b565b820191906000526020600020905b81548152906001019060200180831161063e57829003601f168201915b50505050600383015460048401546005850154600790950154939460ff9092169390925086565b600061068d82611d82565b92915050565b6060600080546106a290612d26565b80601f01602080910402602001604051908101604052809291908181526020018280546106ce90612d26565b801561071b5780601f106106f05761010080835404028352916020019161071b565b820191906000526020600020905b8154815290600101906020018083116106fe57829003601f168201915b5050505050905090565b600061073082611da7565b506000828152600460205260409020546001600160a01b031661068d565b610759828233611ddf565b5050565b600061076883611dec565b6001600160a01b0316036107975760405162461bcd60e51b815260040161078e90612d60565b60405180910390fd5b6000828152600e602052604090206003015460ff166107c85760405162461bcd60e51b815260040161078e90612da4565b6000811161082b5760405162461bcd60e51b815260206004820152602a60248201527f50726f706f73616c4e46543a20416d6f756e74206d75737420626520677265616044820152690746572207468616e20360b41b606482015260840161078e565b604051636eb1769f60e11b815233600482015230602482015281906001600160a01b0385169063dd62ed3e90604401602060405180830381865afa158015610877573d6000803e3d6000fd5b505050506040513d601f19601f8201168201806040525081019061089b9190612de7565b10156108fa5760405162461bcd60e51b815260206004820152602860248201527f50726f706f73616c4e46543a205553444320616c6c6f77616e636520696e737560448201526719999a58da595b9d60c21b606482015260840161078e565b6040516323b872dd60e01b8152336004820152306024820152604481018290526001600160a01b038416906323b872dd906064016020604051808303816000875af115801561094d573d6000803e3d6000fd5b505050506040513d601f19601f820116820180604052508101906109719190612e00565b6109c75760405162461bcd60e51b815260206004820152602160248201527f50726f706f73616c4e46543a2055534443207472616e73666572206661696c656044820152601960fa1b606482015260840161078e565b6000639502f9006109e083670de0b6b3a7640000612e33565b6109ea9190612e4a565b905080600e60008581526020019081526020016000206004016000828254610a129190612e6c565b9091555050604080518281526000602082015284917fed2de103da084463a1b2895568d352fd796dfd1d033c0e8ee9fabe73a671538991015b60405180910390a250505050565b6001600160a01b038216610a8357604051633250574960e11b81526000600482015260240161078e565b6000610a90838333611e07565b9050836001600160a01b0316816001600160a01b031614610ade576040516364283d7b60e01b81526001600160a01b038086166004830152602482018490528216604482015260640161078e565b50505050565b600080610af084611dec565b6001600160a01b031603610b165760405162461bcd60e51b815260040161078e90612d60565b600e600084815260200190815260200160002060060182604051610b3a9190612e7f565b9081526040519081900360200190205460ff16905092915050565b6000610b6083610f09565b8210610b915760405163295f44f760e21b81526001600160a01b03841660048201526024810183905260440161078e565b506001600160a01b03919091166000908152600660209081526040808320938352929052205490565b6000610bc582611dec565b6001600160a01b031603610beb5760405162461bcd60e51b815260040161078e90612d60565b6000818152600e602052604090206003015460ff16610c1c5760405162461bcd60e51b815260040161078e90612da4565b610c2581610efe565b6001600160a01b0316336001600160a01b031614610c855760405162461bcd60e51b815260206004820152601f60248201527f50726f706f73616c4e46543a204e6f742070726f706f73616c206f776e657200604482015260640161078e565b600c54604051636eb1769f60e11b81523360048201523060248201526000916001600160a01b03169063dd62ed3e90604401602060405180830381865afa158015610cd4573d6000803e3d6000fd5b505050506040513d601f19601f82011682018060405250810190610cf89190612de7565b90506000811180610d095750600034115b610d555760405162461bcd60e51b815260206004820181905260248201527f50726f706f73616c4e46543a204e6f2066756e647320746f206465706f736974604482015260640161078e565b8015610e1957600c546040516323b872dd60e01b8152336004820152306024820152604481018390526001600160a01b03909116906323b872dd906064016020604051808303816000875af1158015610db2573d6000803e3d6000fd5b505050506040513d601f19601f82011682018060405250810190610dd69190612e00565b610df25760405162461bcd60e51b815260040161078e90612e9b565b6000828152600e602052604081206005018054839290610e13908490612e6c565b90915550505b3415610e46576000828152600e602052604081206004018054349290610e40908490612e6c565b90915550505b604080513481526020810183905283917fed2de103da084463a1b2895568d352fd796dfd1d033c0e8ee9fabe73a6715389910160405180910390a25050565b610ea083838360405180602001604052806000815250611240565b505050565b6000610eb060085490565b8210610ed95760405163295f44f760e21b8152600060048201526024810183905260440161078e565b60088281548110610eec57610eec612edd565b90600052602060002001549050919050565b600061068d82611da7565b60006001600160a01b038216610f35576040516322718ad960e21b81526000600482015260240161078e565b506001600160a01b031660009081526003602052604090205490565b610f59611edc565b610f636000611f09565b565b600080865111610fcd5760405162461bcd60e51b815260206004820152602d60248201527f50726f706f73616c4e46543a204d75737420696e636c756465206174206c656160448201526c1cdd081bdb99481c185c98d95b609a1b606482015260840161078e565b8215611022578234146110225760405162461bcd60e51b815260206004820181905260248201527f50726f706f73616c4e46543a2045544820616d6f756e74206d69736d61746368604482015260640161078e565b811561119157600c54604051636eb1769f60e11b815233600482015230602482015283916001600160a01b03169063dd62ed3e90604401602060405180830381865afa158015611076573d6000803e3d6000fd5b505050506040513d601f19601f8201168201806040525081019061109a9190612de7565b10156110fa5760405162461bcd60e51b815260206004820152602960248201527f50726f706f73616c4e46543a20546f6b656e20616c6c6f77616e636520696e736044820152681d59999a58da595b9d60ba1b606482015260840161078e565b600c546040516323b872dd60e01b8152336004820152306024820152604481018490526001600160a01b03909116906323b872dd906064016020604051808303816000875af1158015611151573d6000803e3d6000fd5b505050506040513d601f19601f820116820180604052508101906111759190612e00565b6111915760405162461bcd60e51b815260040161078e90612e9b565b600f805490819060006111a383612ef3565b91905055506111b28882611f5b565b6000818152600e60209081526040909120885190916111d59183918b01906126d5565b5060018101805460ff1916881515179055600281016111f48782612f52565b5060038101805460ff191660011790556004810185905560058101849055600060079091015590509695505050505050565b6060600180546106a290612d26565b610759338383611f75565b61124b848484610a59565b610ade3385858585612014565b6060600081818080808061126b89611dec565b6001600160a01b0316036112915760405162461bcd60e51b815260040161078e90612d60565b6000888152600e602090815260408083206001810154600382015460048301546005840154600785015485548751818a0281018a019098528088529598899860ff9687169860028b019896909716969495939492938a92909184015b8282101561139957838290600052602060002001805461130c90612d26565b80601f016020809104026020016040519081016040528092919081815260200182805461133890612d26565b80156113855780601f1061135a57610100808354040283529160200191611385565b820191906000526020600020905b81548152906001019060200180831161136857829003601f168201915b5050505050815260200190600101906112ed565b5050505096508480546113ab90612d26565b80601f01602080910402602001604051908101604052809291908181526020018280546113d790612d26565b80156114245780601f106113f957610100808354040283529160200191611424565b820191906000526020600020905b81548152906001019060200180831161140757829003601f168201915b50505050509450975097509750975097509750975050919395979092949650565b6060600061145283611dec565b6001600160a01b0316036114bd5760405162461bcd60e51b815260206004820152602c60248201527f50726f706f73616c4e46543a2055524920717565727920666f72206e6f6e657860448201526b34b9ba32b73a103a37b5b2b760a11b606482015260840161078e565b6000828152600e6020526040902060020180546114d990612d26565b80601f016020809104026020016040519081016040528092919081815260200182805461150590612d26565b80156115525780601f1061152757610100808354040283529160200191611552565b820191906000526020600020905b81548152906001019060200180831161153557829003601f168201915b50505050509050919050565b600061156983611dec565b6001600160a01b03160361158f5760405162461bcd60e51b815260040161078e90612d60565b6000828152600e602052604090206003015460ff166115c05760405162461bcd60e51b815260040161078e90612da4565b6000805b6000848152600e6020526040902054811015611648578280519060200120600e6000868152602001908152602001600020600001828154811061160957611609612edd565b906000526020600020016040516116209190613012565b6040518091039020036116365760019150611648565b8061164081612ef3565b9150506115c4565b50806116a75760405162461bcd60e51b815260206004820152602860248201527f50726f706f73616c4e46543a2050617263656c206e6f742070617274206f66206044820152671c1c9bdc1bdcd85b60c21b606482015260840161078e565b60006116b28361213f565b600b546040516331a9108f60e11b81526004810183905291925033916001600160a01b0390911690636352211e90602401602060405180830381865afa158015611700573d6000803e3d6000fd5b505050506040513d601f19601f820116820180604052508101906117249190613088565b6001600160a01b03161461177a5760405162461bcd60e51b815260206004820152601d60248201527f50726f706f73616c4e46543a204e6f742070617263656c206f776e6572000000604482015260640161078e565b600e60008581526020019081526020016000206006018360405161179e9190612e7f565b9081526040519081900360200190205460ff161561180a5760405162461bcd60e51b8152602060048201526024808201527f50726f706f73616c4e46543a2050617263656c20616c726561647920616363656044820152631c1d195960e21b606482015260840161078e565b6001600e6000868152602001908152602001600020600601846040516118309190612e7f565b9081526040805160209281900383019020805460ff1916931515939093179092556000868152600e90915290812060070180549161186d83612ef3565b9190505550837f0489aee0414fd75913953d7666c098959cf85b14c90b11f88e1b68de9983cb8a8433604051610a4b9291906130a5565b6001600160a01b03918216600090815260056020908152604080832093909416825291909152205460ff1690565b6118da611edc565b6001600160a01b03811661190457604051631e4fbdf760e01b81526000600482015260240161078e565b61190d81611f09565b50565b600061191b82611dec565b6001600160a01b0316036119415760405162461bcd60e51b815260040161078e90612d60565b6000818152600e602052604090206003015460ff166119725760405162461bcd60e51b815260040161078e90612da4565b6000818152600e60205260409020600181015460ff16156119f45780546007820154146119ef5760405162461bcd60e51b815260206004820152602560248201527f50726f706f73616c4e46543a204e6f7420616c6c2070617263656c7320616363604482015264195c1d195960da1b606482015260840161078e565b611a48565b6000816007015411611a485760405162461bcd60e51b815260206004820152601b60248201527f50726f706f73616c4e46543a204e6f20616363657074616e6365730000000000604482015260640161078e565b600081600701548260040154611a5e9190612e4a565b9050600082600701548360050154611a769190612e4a565b905060005b8354811015611d32576000846000018281548110611a9b57611a9b612edd565b906000526020600020018054611ab090612d26565b80601f0160208091040260200160405190810160405280929190818152602001828054611adc90612d26565b8015611b295780601f10611afe57610100808354040283529160200191611b29565b820191906000526020600020905b815481529060010190602001808311611b0c57829003601f168201915b505050505090508460060181604051611b429190612e7f565b9081526040519081900360200190205460ff1615611d1f576020810151600b546040516331a9108f60e11b8152600481018390526000916001600160a01b031690636352211e90602401602060405180830381865afa158015611ba9573d6000803e3d6000fd5b505050506040513d601f19601f82011682018060405250810190611bcd9190613088565b600488015490915015611c7f576000816001600160a01b03168760405160006040518083038185875af1925050503d8060008114611c27576040519150601f19603f3d011682016040523d82523d6000602084013e611c2c565b606091505b5050905080611c7d5760405162461bcd60e51b815260206004820181905260248201527f50726f706f73616c4e46543a20455448207472616e73666572206661696c6564604482015260640161078e565b505b600587015415611d1c57600c5460405163a9059cbb60e01b81526001600160a01b038381166004830152602482018890529091169063a9059cbb906044016020604051808303816000875af1158015611cdc573d6000803e3d6000fd5b505050506040513d601f19601f82011682018060405250810190611d009190612e00565b611d1c5760405162461bcd60e51b815260040161078e90612e9b565b50505b5080611d2a81612ef3565b915050611a7b565b5060038301805460ff191690556004830154600584015460405186927fdaf6233a382145376035341e71f8a04305f7e323d0fe3e58c908cf0a26b76df992610a4b92918252602082015260400190565b60006001600160e01b0319821663780e9d6360e01b148061068d575061068d826121c7565b600080611db383611dec565b90506001600160a01b03811661068d57604051637e27328960e01b81526004810184905260240161078e565b610ea08383836001612217565b6000908152600260205260409020546001600160a01b031690565b600080611e1585858561231d565b90506001600160a01b038116611e7257611e6d84600880546000838152600960205260408120829055600182018355919091527ff3f7a9fe364faab93b216da50a3214154f22a0a2b415b23a84c8169e8b636ee30155565b611e95565b846001600160a01b0316816001600160a01b031614611e9557611e958185612411565b6001600160a01b038516611eb157611eac84612492565b611ed4565b846001600160a01b0316816001600160a01b031614611ed457611ed48585612541565b949350505050565b600a546001600160a01b03163314610f635760405163118cdaa760e01b815233600482015260240161078e565b600a80546001600160a01b038381166001600160a01b0319831681179093556040519116919082907f8be0079c531659141344cd1fd0a4f28419497f9722a3daafe3b4186f6b6457e090600090a35050565b610759828260405180602001604052806000815250612591565b6001600160a01b038216611fa757604051630b61174360e31b81526001600160a01b038316600482015260240161078e565b6001600160a01b03838116600081815260056020908152604080832094871680845294825291829020805460ff191686151590811790915591519182527f17307eab39ab6107e8899845ad3d59bd9653f200f220920489ca2b5937696c31910160405180910390a3505050565b6001600160a01b0383163b1561213857604051630a85bd0160e11b81526001600160a01b0384169063150b7a02906120569088908890879087906004016130cf565b6020604051808303816000875af1925050508015612091575060408051601f3d908101601f1916820190925261208e9181019061310c565b60015b6120fa573d8080156120bf576040519150601f19603f3d011682016040523d82523d6000602084013e6120c4565b606091505b5080516000036120f257604051633250574960e11b81526001600160a01b038516600482015260240161078e565b805181602001fd5b6001600160e01b03198116630a85bd0160e11b1461213657604051633250574960e11b81526001600160a01b038516600482015260240161078e565b505b5050505050565b60008181805b82518110156121bf57600083828151811061216257612162612edd565b016020015160f81c905060308110801590612181575060398160ff1611155b156121ac57612191603082613129565b60ff1661219f84600a612e33565b6121a99190612e6c565b92505b50806121b781612ef3565b915050612145565b509392505050565b60006001600160e01b031982166380ac58cd60e01b14806121f857506001600160e01b03198216635b5e139f60e01b145b8061068d57506301ffc9a760e01b6001600160e01b031983161461068d565b808061222b57506001600160a01b03821615155b156122ed57600061223b84611da7565b90506001600160a01b038316158015906122675750826001600160a01b0316816001600160a01b031614155b801561227a575061227881846118a4565b155b156122a35760405163a9fbf51f60e01b81526001600160a01b038416600482015260240161078e565b81156122eb5783856001600160a01b0316826001600160a01b03167f8c5be1e5ebec7d5bd14f71427d1e84f3dd0314c0f7b2291e5b200ac8c7c3b92560405160405180910390a45b505b5050600090815260046020526040902080546001600160a01b0319166001600160a01b0392909216919091179055565b60008061232984611dec565b90506001600160a01b03831615612345576123458184866125a9565b6001600160a01b0381161561238357612362600085600080612217565b6001600160a01b038116600090815260036020526040902080546000190190555b6001600160a01b038516156123b2576001600160a01b0385166000908152600360205260409020805460010190555b60008481526002602052604080822080546001600160a01b0319166001600160a01b0389811691821790925591518793918516917fddf252ad1be2c89b69c2b068fc378daa952ba7f163c4a11628f55a4df523b3ef91a4949350505050565b600061241c83610f09565b6000838152600760209081526040808320546001600160a01b038816845260069092529091209192509081831461247357600083815260208281526040808320548584528184208190558352600790915290208290555b6000938452600760209081526040808620869055938552525081205550565b6008546000906124a490600190613142565b600083815260096020526040812054600880549394509092849081106124cc576124cc612edd565b9060005260206000200154905080600883815481106124ed576124ed612edd565b600091825260208083209091019290925582815260099091526040808220849055858252812055600880548061252557612525613155565b6001900381819060005260206000200160009055905550505050565b6000600161254e84610f09565b6125589190613142565b6001600160a01b039093166000908152600660209081526040808320868452825280832085905593825260079052919091209190915550565b61259b838361260d565b610ea0336000858585612014565b6125b4838383612672565b610ea0576001600160a01b0383166125e257604051637e27328960e01b81526004810182905260240161078e565b60405163177e802f60e01b81526001600160a01b03831660048201526024810182905260440161078e565b6001600160a01b03821661263757604051633250574960e11b81526000600482015260240161078e565b600061264583836000611e07565b90506001600160a01b03811615610ea0576040516339e3563760e11b81526000600482015260240161078e565b60006001600160a01b03831615801590611ed45750826001600160a01b0316846001600160a01b031614806126ac57506126ac84846118a4565b80611ed45750506000908152600460205260409020546001600160a01b03908116911614919050565b82805482825590600052602060002090810192821561271b579160200282015b8281111561271b578251829061270b9082612f52565b50916020019190600101906126f5565b5061272792915061272b565b5090565b8082111561272757600061273f8282612748565b5060010161272b565b50805461275490612d26565b6000825580601f10612764575050565b601f01602090049060005260206000209081019061190d91905b80821115612727576000815560010161277e565b6000602082840312156127a457600080fd5b5035919050565b60005b838110156127c65781810151838201526020016127ae565b50506000910152565b600081518084526127e78160208601602086016127ab565b601f01601f19169290920160200192915050565b861515815260c06020820152600061281660c08301886127cf565b9515156040830152506060810193909352608083019190915260a09091015292915050565b6001600160e01b03198116811461190d57600080fd5b60006020828403121561286357600080fd5b813561286e8161283b565b9392505050565b60208152600061286e60208301846127cf565b6001600160a01b038116811461190d57600080fd5b600080604083850312156128b057600080fd5b82356128bb81612888565b946020939093013593505050565b6000806000606084860312156128de57600080fd5b83356128e981612888565b95602085013595506040909401359392505050565b60008060006060848603121561291357600080fd5b833561291e81612888565b9250602084013561292e81612888565b929592945050506040919091013590565b634e487b7160e01b600052604160045260246000fd5b604051601f8201601f1916810167ffffffffffffffff8111828210171561297e5761297e61293f565b604052919050565b600067ffffffffffffffff8311156129a0576129a061293f565b6129b3601f8401601f1916602001612955565b90508281528383830111156129c757600080fd5b828260208301376000602084830101529392505050565b600082601f8301126129ef57600080fd5b61286e83833560208501612986565b60008060408385031215612a1157600080fd5b82359150602083013567ffffffffffffffff811115612a2f57600080fd5b612a3b858286016129de565b9150509250929050565b600060208284031215612a5757600080fd5b813561286e81612888565b801515811461190d57600080fd5b8035612a7b81612a62565b919050565b60008060008060008060c08789031215612a9957600080fd5b612aa38735612888565b8635955060208088013567ffffffffffffffff80821115612ac357600080fd5b818a0191508a601f830112612ad757600080fd5b813581811115612ae957612ae961293f565b8060051b612af8858201612955565b918252838101850191858101908e841115612b1257600080fd5b86860192505b83831015612b4c578483351115612b2e57600080fd5b612b3d8f8885358901016129de565b82529186019190860190612b18565b9a50612b5e9250505060408b01612a70565b965060608a0135925080831115612b7457600080fd5b5050612b8289828a016129de565b9350506080870135915060a087013590509295509295509295565b60008060408385031215612bb057600080fd5b8235612bbb81612888565b91506020830135612bcb81612a62565b809150509250929050565b60008060008060808587031215612bec57600080fd5b8435612bf781612888565b93506020850135612c0781612888565b925060408501359150606085013567ffffffffffffffff811115612c2a57600080fd5b8501601f81018713612c3b57600080fd5b612c4a87823560208401612986565b91505092959194509250565b60e08082528851908201819052600090610100600582901b8401810191908401906020808d01855b83811015612cac5760ff19888703018552612c9a8683516127cf565b95509382019390820190600101612c7e565b50508b15159086015250508281036040840152612cc981896127cf565b915050612cda606083018715159052565b8460808301528360a08301528260c083015298975050505050505050565b60008060408385031215612d0b57600080fd5b8235612d1681612888565b91506020830135612bcb81612888565b600181811c90821680612d3a57607f821691505b602082108103612d5a57634e487b7160e01b600052602260045260246000fd5b50919050565b60208082526024908201527f50726f706f73616c4e46543a2050726f706f73616c20646f6573206e6f7420656040820152631e1a5cdd60e21b606082015260800190565b60208082526023908201527f50726f706f73616c4e46543a2050726f706f73616c206973206e6f742061637460408201526269766560e81b606082015260800190565b600060208284031215612df957600080fd5b5051919050565b600060208284031215612e1257600080fd5b815161286e81612a62565b634e487b7160e01b600052601160045260246000fd5b808202811582820484141761068d5761068d612e1d565b600082612e6757634e487b7160e01b600052601260045260246000fd5b500490565b8082018082111561068d5761068d612e1d565b60008251612e918184602087016127ab565b9190910192915050565b60208082526022908201527f50726f706f73616c4e46543a20546f6b656e207472616e73666572206661696c604082015261195960f21b606082015260800190565b634e487b7160e01b600052603260045260246000fd5b600060018201612f0557612f05612e1d565b5060010190565b601f821115610ea057600081815260208120601f850160051c81016020861015612f335750805b601f850160051c820191505b8181101561213657828155600101612f3f565b815167ffffffffffffffff811115612f6c57612f6c61293f565b612f8081612f7a8454612d26565b84612f0c565b602080601f831160018114612fb55760008415612f9d5750858301515b600019600386901b1c1916600185901b178555612136565b600085815260208120601f198616915b82811015612fe457888601518255948401946001909101908401612fc5565b50858210156130025787850151600019600388901b60f8161c191681555b5050505050600190811b01905550565b600080835461302081612d26565b60018281168015613038576001811461304d5761307c565b60ff198416875282151583028701945061307c565b8760005260208060002060005b858110156130735781548a82015290840190820161305a565b50505082870194505b50929695505050505050565b60006020828403121561309a57600080fd5b815161286e81612888565b6040815260006130b860408301856127cf565b905060018060a01b03831660208301529392505050565b6001600160a01b0385811682528416602082015260408101839052608060608201819052600090613102908301846127cf565b9695505050505050565b60006020828403121561311e57600080fd5b815161286e8161283b565b60ff828116828216039081111561068d5761068d612e1d565b8181038181111561068d5761068d612e1d565b634e487b7160e01b600052603160045260246000fdfea2646970667358221220cd97da4c99bf2954bb390ab5da98fe4b3cf108fe24012625590ad79b455a86be64736f6c63430008140033",
  "devdoc": {
    "errors": {
      "ERC721EnumerableForbiddenBatchMint()": [
        {
          "details": "Batch mint is not allowed."
        }
      ],
      "ERC721IncorrectOwner(address,uint256,address)": [
        {
          "details": "Indicates an error related to the ownership over a particular token. Used in transfers.",
          "params": {
            "owner": "Address of the current owner of a token.",
            "sender": "Address whose tokens are being transferred.",
            "tokenId": "Identifier number of a token."
          }
        }
      ],
      "ERC721InsufficientApproval(address,uint256)": [
        {
          "details": "Indicates a failure with the `operator`s approval. Used in transfers.",
          "params": {
            "operator": "Address that may be allowed to operate on tokens without being their owner.",
            "tokenId": "Identifier number of a token."
          }
        }
      ],
      "ERC721InvalidApprover(address)": [
        {
          "details": "Indicates a failure with the `approver` of a token to be approved. Used in approvals.",
          "params": {
            "approver": "Address initiating an approval operation."
          }
        }
      ],
      "ERC721InvalidOperator(address)": [
        {
          "details": "Indicates a failure with the `operator` to be approved. Used in approvals.",
          "params": {
            "operator": "Address that may be allowed to operate on tokens without being their owner."
          }
        }
      ],
      "ERC721InvalidOwner(address)": [
        {
          "details": "Indicates that an address can't be an owner. For example, `address(0)` is a forbidden owner in ERC-20. Used in balance queries.",
          "params": {
            "owner": "Address of the current owner of a token."
          }
        }
      ],
      "ERC721InvalidReceiver(address)": [
        {
          "details": "Indicates a failure with the token `receiver`. Used in transfers.",
          "params": {
            "receiver": "Address to which tokens are being transferred."
          }
        }
      ],
      "ERC721InvalidSender(address)": [
        {
          "details": "Indicates a failure with the token `sender`. Used in transfers.",
          "params": {
            "sender": "Address whose tokens are being transferred."
          }
        }
      ],
      "ERC721NonexistentToken(uint256)": [
        {
          "details": "Indicates a `tokenId` whose `owner` is the zero address.",
          "params": {
            "tokenId": "Identifier number of a token."
          }
        }
      ],
      "ERC721OutOfBoundsIndex(address,uint256)": [
        {
          "details": "An `owner`'s token query was out of bounds for `index`. NOTE: The owner being `address(0)` indicates a global out of bounds index."
        }
      ],
      "OwnableInvalidOwner(address)": [
        {
          "details": "The owner is not a valid owner account. (eg. `address(0)`)"
        }
      ],
      "OwnableUnauthorizedAccount(address)": [
        {
          "details": "The caller account is not authorized to perform an operation."
        }
      ]
    },
    "events": {
      "Approval(address,address,uint256)": {
        "details": "Emitted when `owner` enables `approved` to manage the `tokenId` token."
      },
      "ApprovalForAll(address,address,bool)": {
        "details": "Emitted when `owner` enables or disables (`approved`) `operator` to manage all of its assets."
      },
      "Transfer(address,address,uint256)": {
        "details": "Emitted when `tokenId` token is transferred from `from` to `to`."
      }
    },
    "kind": "dev",
    "methods": {
      "approve(address,uint256)": {
        "details": "See {IERC721-approve}."
      },
      "balanceOf(address)": {
        "details": "See {IERC721-balanceOf}."
      },
      "getApproved(uint256)": {
        "details": "See {IERC721-getApproved}."
      },
      "isApprovedForAll(address,address)": {
        "details": "See {IERC721-isApprovedForAll}."
      },
      "name()": {
        "details": "See {IERC721Metadata-name}."
      },
      "owner()": {
        "details": "Returns the address of the current owner."
      },
      "ownerOf(uint256)": {
        "details": "See {IERC721-ownerOf}."
      },
      "renounceOwnership()": {
        "details": "Leaves the contract without owner. It will not be possible to call `onlyOwner` functions. Can only be called by the current owner. NOTE: Renouncing ownership will leave the contract without an owner, thereby disabling any functionality that is only available to the owner."
      },
      "safeTransferFrom(address,address,uint256)": {
        "details": "See {IERC721-safeTransferFrom}."
      },
      "safeTransferFrom(address,address,uint256,bytes)": {
        "details": "See {IERC721-safeTransferFrom}."
      },
      "setApprovalForAll(address,bool)": {
        "details": "See {IERC721-setApprovalForAll}."
      },
      "supportsInterface(bytes4)": {
        "details": "See {IERC165-supportsInterface}."
      },
      "symbol()": {
        "details": "See {IERC721Metadata-symbol}."
      },
      "tokenByIndex(uint256)": {
        "details": "See {IERC721Enumerable-tokenByIndex}."
      },
      "tokenOfOwnerByIndex(address,uint256)": {
        "details": "See {IERC721Enumerable-tokenOfOwnerByIndex}."
      },
      "tokenURI(uint256)": {
        "details": "See {IERC721Metadata-tokenURI}."
      },
      "totalSupply()": {
        "details": "See {IERC721Enumerable-totalSupply}."
      },
      "transferFrom(address,address,uint256)": {
        "details": "See {IERC721-transferFrom}."
      },
      "transferOwnership(address)": {
        "details": "Transfers ownership of the contract to a new account (`newOwner`). Can only be called by the current owner."
      }
    },
    "version": 1
  },
  "userdoc": {
    "kind": "user",
    "methods": {},
    "version": 1
  },
  "storageLayout": {
    "storage": [
      {
        "astId": 395,
        "contract": "contracts/ProposalNFT.sol:ProposalNFT",
        "label": "_name",
        "offset": 0,
        "slot": "0",
        "type": "t_string_storage"
      },
      {
        "astId": 397,
        "contract": "contracts/ProposalNFT.sol:ProposalNFT",
        "label": "_symbol",
        "offset": 0,
        "slot": "1",
        "type": "t_string_storage"
      },
      {
        "astId": 401,
        "contract": "contracts/ProposalNFT.sol:ProposalNFT",
        "label": "_owners",
        "offset": 0,
        "slot": "2",
        "type": "t_mapping(t_uint256,t_address)"
      },
      {
        "astId": 405,
        "contract": "contracts/ProposalNFT.sol:ProposalNFT",
        "label": "_balances",
        "offset": 0,
        "slot": "3",
        "type": "t_mapping(t_address,t_uint256)"
      },
      {
        "astId": 409,
        "contract": "contracts/ProposalNFT.sol:ProposalNFT",
        "label": "_tokenApprovals",
        "offset": 0,
        "slot": "4",
        "type": "t_mapping(t_uint256,t_address)"
      },
      {
        "astId": 415,
        "contract": "contracts/ProposalNFT.sol:ProposalNFT",
        "label": "_operatorApprovals",
        "offset": 0,
        "slot": "5",
        "type": "t_mapping(t_address,t_mapping(t_address,t_bool))"
      },
      {
        "astId": 1473,
        "contract": "contracts/ProposalNFT.sol:ProposalNFT",
        "label": "_ownedTokens",
        "offset": 0,
        "slot": "6",
        "type": "t_mapping(t_address,t_mapping(t_uint256,t_uint256))"
      },
      {
        "astId": 1477,
        "contract": "contracts/ProposalNFT.sol:ProposalNFT",
        "label": "_ownedTokensIndex",
        "offset": 0,
        "slot": "7",
        "type": "t_mapping(t_uint256,t_uint256)"
      },
      {
        "astId": 1480,
        "contract": "contracts/ProposalNFT.sol:ProposalNFT",
        "label": "_allTokens",
        "offset": 0,
        "slot": "8",
        "type": "t_array(t_uint256)dyn_storage"
      },
      {
        "astId": 1484,
        "contract": "contracts/ProposalNFT.sol:ProposalNFT",
        "label": "_allTokensIndex",
        "offset": 0,
        "slot": "9",
        "type": "t_mapping(t_uint256,t_uint256)"
      },
      {
        "astId": 8,
        "contract": "contracts/ProposalNFT.sol:ProposalNFT",
        "label": "_owner",
        "offset": 0,
        "slot": "10",
        "type": "t_address"
      },
      {
        "astId": 6992,
        "contract": "contracts/ProposalNFT.sol:ProposalNFT",
        "label": "parcelNFT",
        "offset": 0,
        "slot": "11",
        "type": "t_contract(ParcelNFT)6959"
      },
      {
        "astId": 6995,
        "contract": "contracts/ProposalNFT.sol:ProposalNFT",
        "label": "cityToken",
        "offset": 0,
        "slot": "12",
        "type": "t_contract(IERC20)362"
      },
      {
        "astId": 6998,
        "contract": "contracts/ProposalNFT.sol:ProposalNFT",
        "label": "usdcToken",
        "offset": 0,
        "slot": "13",
        "type": "t_contract(IERC20)362"
      },
      {
        "astId": 7003,
        "contract": "contracts/ProposalNFT.sol:ProposalNFT",
        "label": "proposals",
        "offset": 0,
        "slot": "14",
        "type": "t_mapping(t_uint256,t_struct(Proposal)6989_storage)"
      },
      {
        "astId": 7005,
        "contract": "contracts/ProposalNFT.sol:ProposalNFT",
        "label": "_tokenIdCounter",
        "offset": 0,
        "slot": "15",
        "type": "t_uint256"
      }
    ],
    "types": {
      "t_address": {
        "encoding": "inplace",
        "label": "address",
        "numberOfBytes": "20"
      },
      "t_array(t_string_storage)dyn_storage": {
        "base": "t_string_storage",
        "encoding": "dynamic_array",
        "label": "string[]",
        "numberOfBytes": "32"
      },
      "t_array(t_uint256)dyn_storage": {
        "base": "t_uint256",
        "encoding": "dynamic_array",
        "label": "uint256[]",
        "numberOfBytes": "32"
      },
      "t_bool": {
        "encoding": "inplace",
        "label": "bool",
        "numberOfBytes": "1"
      },
      "t_contract(IERC20)362": {
        "encoding": "inplace",
        "label": "contract IERC20",
        "numberOfBytes": "20"
      },
      "t_contract(ParcelNFT)6959": {
        "encoding": "inplace",
        "label": "contract ParcelNFT",
        "numberOfBytes": "20"
      },
      "t_mapping(t_address,t_bool)": {
        "encoding": "mapping",
        "key": "t_address",
        "label": "mapping(address => bool)",
        "numberOfBytes": "32",
        "value": "t_bool"
      },
      "t_mapping(t_address,t_mapping(t_address,t_bool))": {
        "encoding": "mapping",
        "key": "t_address",
        "label": "mapping(address => mapping(address => bool))",
        "numberOfBytes": "32",
        "value": "t_mapping(t_address,t_bool)"
      },
      "t_mapping(t_address,t_mapping(t_uint256,t_uint256))": {
        "encoding": "mapping",
        "key": "t_address",
        "label": "mapping(address => mapping(uint256 => uint256))",
        "numberOfBytes": "32",
        "value": "t_mapping(t_uint256,t_uint256)"
      },
      "t_mapping(t_address,t_uint256)": {
        "encoding": "mapping",
        "key": "t_address",
        "label": "mapping(address => uint256)",
        "numberOfBytes": "32",
        "value": "t_uint256"
      },
      "t_mapping(t_string_memory_ptr,t_bool)": {
        "encoding": "mapping",
        "key": "t_string_memory_ptr",
        "label": "mapping(string => bool)",
        "numberOfBytes": "32",
        "value": "t_bool"
      },
      "t_mapping(t_uint256,t_address)": {
        "encoding": "mapping",
        "key": "t_uint256",
        "label": "mapping(uint256 => address)",
        "numberOfBytes": "32",
        "value": "t_address"
      },
      "t_mapping(t_uint256,t_struct(Proposal)6989_storage)": {
        "encoding": "mapping",
        "key": "t_uint256",
        "label": "mapping(uint256 => struct ProposalNFT.Proposal)",
        "numberOfBytes": "32",
        "value": "t_struct(Proposal)6989_storage"
      },
      "t_mapping(t_uint256,t_uint256)": {
        "encoding": "mapping",
        "key": "t_uint256",
        "label": "mapping(uint256 => uint256)",
        "numberOfBytes": "32",
        "value": "t_uint256"
      },
      "t_string_memory_ptr": {
        "encoding": "bytes",
        "label": "string",
        "numberOfBytes": "32"
      },
      "t_string_storage": {
        "encoding": "bytes",
        "label": "string",
        "numberOfBytes": "32"
      },
      "t_struct(Proposal)6989_storage": {
        "encoding": "inplace",
        "label": "struct ProposalNFT.Proposal",
        "members": [
          {
            "astId": 6972,
            "contract": "contracts/ProposalNFT.sol:ProposalNFT",
            "label": "parcelIds",
            "offset": 0,
            "slot": "0",
            "type": "t_array(t_string_storage)dyn_storage"
          },
          {
            "astId": 6974,
            "contract": "contracts/ProposalNFT.sol:ProposalNFT",
            "label": "isConditional",
            "offset": 0,
            "slot": "1",
            "type": "t_bool"
          },
          {
            "astId": 6976,
            "contract": "contracts/ProposalNFT.sol:ProposalNFT",
            "label": "imageURI",
            "offset": 0,
            "slot": "2",
            "type": "t_string_storage"
          },
          {
            "astId": 6978,
            "contract": "contracts/ProposalNFT.sol:ProposalNFT",
            "label": "isActive",
            "offset": 0,
            "slot": "3",
            "type": "t_bool"
          },
          {
            "astId": 6980,
            "contract": "contracts/ProposalNFT.sol:ProposalNFT",
            "label": "ethBalance",
            "offset": 0,
            "slot": "4",
            "type": "t_uint256"
          },
          {
            "astId": 6982,
            "contract": "contracts/ProposalNFT.sol:ProposalNFT",
            "label": "tokenBalance",
            "offset": 0,
            "slot": "5",
            "type": "t_uint256"
          },
          {
            "astId": 6986,
            "contract": "contracts/ProposalNFT.sol:ProposalNFT",
            "label": "hasAccepted",
            "offset": 0,
            "slot": "6",
            "type": "t_mapping(t_string_memory_ptr,t_bool)"
          },
          {
            "astId": 6988,
            "contract": "contracts/ProposalNFT.sol:ProposalNFT",
            "label": "acceptanceCount",
            "offset": 0,
            "slot": "7",
            "type": "t_uint256"
          }
        ],
        "numberOfBytes": "256"
      },
      "t_uint256": {
        "encoding": "inplace",
        "label": "uint256",
        "numberOfBytes": "32"
      }
    }
  }
}